{
  "safe": "0xBE1685C81aA44FF9FB319dD389addd9374383e90",
  "to": "0xC06Fd4F821eaC1fF1ae8067b36342899b57BAa2d",
  "value": "0",
  "data": "0x01d5062a000000000000000000000000369e6f597e22eab55ffb173c6d9cd234bd699111000000000000000000000000000000000000000000000000000000000000000000000000000000000000000000000000000000000000000000000000000000c00000000000000000000000000000000000000000000000000000000000000000000000000000000000000000000000000000000000000000000000000000000000000000000000000000000000000000000000000000000000000000000d2f0000000000000000000000000000000000000000000000000000000000000003e46a76120200000000000000000000000040a2accbd92bca938b02010e17a5b8929b49130d00000000000000000000000000000000000000000000000000000000000000000000000000000000000000000000000000000000000000000000000000000140000000000000000000000000000000000000000000000000000000000000000100000000000000000000000000000000000000000000000000000000000000000000000000000000000000000000000000000000000000000000000000000000000000000000000000000000000000000000000000000000000000000000000000000000000000000000000000000000000000000000000000000000000000000000000000000000000000000000000000000000000000000000000000000000000000000000000000000000000000000000000000000000000000000000036000000000000000000000000000000000000000000000000000000000000001e48d80ff0a0000000000000000000000000000000000000000000000000000000000000020000000000000000000000000000000000000000000000000000000000000018b005a2a4f2f3c18f09179b6703e63d9edd165909073000000000000000000000000000000000000000000000000000000000000000000000000000000000000000000000000000000000000000000000000000000243659cfe6000000000000000000000000e2e2db234b0ffb9afe41e52db7d3c2b8585646c3008b9566ada63b64d1e1dcf1418b43fd1433b724440000000000000000000000000000000000000000000000000000000000000000000000000000000000000000000000000000000000000000000000000000004499a88ec400000000000000000000000091e677b07f7af907ec9a428aafa9fc14a0d3a3380000000000000000000000008db49233e3b7691d68745a31e4a0cd9cf924b7e90091e677b07f7af907ec9a428aafa9fc14a0d3a338000000000000000000000000000000000000000000000000000000000000000000000000000000000000000000000000000000000000000000000000000000240d1e9de1000000000000000000000000be1685c81aa44ff9fb319dd389addd9374383e90000000000000000000000000000000000000000000000000000000000000000000000000000000000000000000000000000000000000000000000000000000000000000000000000000000000000000041000000000000000000000000c06fd4f821eac1ff1ae8067b36342899b57baa2d0000000000000000000000000000000000000000000000000000000000000000010000000000000000000000000000000000000000000000000000000000000000000000000000000000000000000000000000000000000000000000",
  "operation": 0,
  "gasToken": "0x0000000000000000000000000000000000000000",
  "safeTxGas": 0,
  "baseGas": 0,
  "gasPrice": "0",
  "refundReceiver": "0x0000000000000000000000000000000000000000",
  "nonce": 69,
  "executionDate": "2025-04-25T17:42:59Z",
  "submissionDate": "2025-04-25T16:57:42.905349Z",
  "modified": "2025-04-25T17:43:05.149388Z",
  "blockNumber": 22347599,
  "transactionHash": "0x1ad4de91745abc80ffd29a831ff4194b6d9bdb562729e760265ab02dbb5cfb8a",
  "safeTxHash": "0xc0ec6f8f2c09b4565b1578621ee7f7357ac3e058806670498eb6fd2fa3464c3a",
  "proposer": "0xdC541e2B4adD96888b2C79006F49A9748A4f1bDF",
  "proposedByDelegate": null,
  "executor": "0xdC541e2B4adD96888b2C79006F49A9748A4f1bDF",
  "isExecuted": true,
  "isSuccessful": true,
  "ethGasPrice": "1996182764",
  "maxFeePerGas": "2046039662",
  "maxPriorityFeePerGas": "100000000",
  "gasUsed": 115269,
  "fee": "230097991023516",
  "origin": "{}",
  "dataDecoded": {
    "method": "schedule",
    "parameters": [
      {
        "name": "target",
        "type": "address",
        "value": "0x369e6F597e22EaB55fFb173C6d9cD234BD699111"
      },
      {
        "name": "value",
        "type": "uint256",
        "value": "0"
      },
      {
        "name": "data",
        "type": "bytes",
        "value": "0x6a76120200000000000000000000000040a2accbd92bca938b02010e17a5b8929b49130d00000000000000000000000000000000000000000000000000000000000000000000000000000000000000000000000000000000000000000000000000000140000000000000000000000000000000000000000000000000000000000000000100000000000000000000000000000000000000000000000000000000000000000000000000000000000000000000000000000000000000000000000000000000000000000000000000000000000000000000000000000000000000000000000000000000000000000000000000000000000000000000000000000000000000000000000000000000000000000000000000000000000000000000000000000000000000000000000000000000000000000000000000000000000000000000036000000000000000000000000000000000000000000000000000000000000001e48d80ff0a0000000000000000000000000000000000000000000000000000000000000020000000000000000000000000000000000000000000000000000000000000018b005a2a4f2f3c18f09179b6703e63d9edd165909073000000000000000000000000000000000000000000000000000000000000000000000000000000000000000000000000000000000000000000000000000000243659cfe6000000000000000000000000e2e2db234b0ffb9afe41e52db7d3c2b8585646c3008b9566ada63b64d1e1dcf1418b43fd1433b724440000000000000000000000000000000000000000000000000000000000000000000000000000000000000000000000000000000000000000000000000000004499a88ec400000000000000000000000091e677b07f7af907ec9a428aafa9fc14a0d3a3380000000000000000000000008db49233e3b7691d68745a31e4a0cd9cf924b7e90091e677b07f7af907ec9a428aafa9fc14a0d3a338000000000000000000000000000000000000000000000000000000000000000000000000000000000000000000000000000000000000000000000000000000240d1e9de1000000000000000000000000be1685c81aa44ff9fb319dd389addd9374383e90000000000000000000000000000000000000000000000000000000000000000000000000000000000000000000000000000000000000000000000000000000000000000000000000000000000000000041000000000000000000000000c06fd4f821eac1ff1ae8067b36342899b57baa2d00000000000000000000000000000000000000000000000000000000000000000100000000000000000000000000000000000000000000000000000000000000"
      },
      {
        "name": "predecessor",
        "type": "bytes32",
        "value": "0x0000000000000000000000000000000000000000000000000000000000000000"
      },
      {
        "name": "salt",
        "type": "bytes32",
        "value": "0x0000000000000000000000000000000000000000000000000000000000000000"
      },
      {
        "name": "delay",
        "type": "uint256",
        "value": "864000"
      }
    ]
  },
  "confirmationsRequired": 3,
  "confirmations": [
    {
      "owner": "0xdC541e2B4adD96888b2C79006F49A9748A4f1bDF",
      "submissionDate": "2025-04-25T16:57:42.939617Z",
      "transactionHash": null,
      "signature": "0x32ee173add6277ec7fc5d20c552b33d0ab60422b819de38eca8f62ce656d52371c17bf299abb1f1cb5abfd5d32ca6f272327dcf8b022924ec5790e665eb11c4f1c",
      "signatureType": "EOA"
    },
    {
      "owner": "0xb7Ae34BB33da55f12797e793E01e63a17B11d108",
      "submissionDate": "2025-04-25T17:07:24.345403Z",
      "transactionHash": null,
      "signature": "0x09e0762e07f8ff2992e557f561df81f17b74c4a4cfc283564a207abb362a890571e354272f31ddea43379267d8a687b401f99e3c7e566a5238f0733f3841d22b1c",
      "signatureType": "EOA"
    },
    {
      "owner": "0xFBB1A3C8C8A99A2A4797250dF87E307Dc3f01Fe0",
      "submissionDate": "2025-04-25T17:37:16.889897Z",
      "transactionHash": null,
      "signature": "0x5ecf02c8fdd91d9bbb1e250f47addf46b8d50d48d13f9f86ac68d5752cc64b3f50f7e82b337bb9ecea8a8469847c8d2c025f8194d4e32144a78e3a2f9fdc00e31c",
      "signatureType": "EOA"
    }
  ],
  "trusted": true,
  "signatures": "0x09e0762e07f8ff2992e557f561df81f17b74c4a4cfc283564a207abb362a890571e354272f31ddea43379267d8a687b401f99e3c7e566a5238f0733f3841d22b1c32ee173add6277ec7fc5d20c552b33d0ab60422b819de38eca8f62ce656d52371c17bf299abb1f1cb5abfd5d32ca6f272327dcf8b022924ec5790e665eb11c4f1c5ecf02c8fdd91d9bbb1e250f47addf46b8d50d48d13f9f86ac68d5752cc64b3f50f7e82b337bb9ecea8a8469847c8d2c025f8194d4e32144a78e3a2f9fdc00e31c"
}