{
  "safe": "0x461854d84Ee845F905e0eCf6C288DDEEb4A9533F",
  "to": "0xC06Fd4F821eaC1fF1ae8067b36342899b57BAa2d",
  "value": "0",
  "data": "0x134008d3000000000000000000000000369e6f597e22eab55ffb173c6d9cd234bd699111000000000000000000000000000000000000000000000000000000000000000000000000000000000000000000000000000000000000000000000000000000a0b4c4773e2022f944e0bb49bfebc15ff216bac202ee91f87adcc06b4018ca1318000000000000000000000000000000000000000000000000000000000000000000000000000000000000000000000000000000000000000000000000000002c46a76120200000000000000000000000040a2accbd92bca938b02010e17a5b8929b49130d00000000000000000000000000000000000000000000000000000000000000000000000000000000000000000000000000000000000000000000000000000140000000000000000000000000000000000000000000000000000000000000000100000000000000000000000000000000000000000000000000000000000000000000000000000000000000000000000000000000000000000000000000000000000000000000000000000000000000000000000000000000000000000000000000000000000000000000000000000000000000000000000000000000000000000000000000000000000000000000000000000000000000000000000000000000000000000000000000000000000000000000000000000000000000000000024000000000000000000000000000000000000000000000000000000000000000c48d80ff0a000000000000000000000000000000000000000000000000000000000000002000000000000000000000000000000000000000000000000000000000000000790091e677b07f7af907ec9a428aafa9fc14a0d3a33800000000000000000000000000000000000000000000000000000000000000000000000000000000000000000000000000000000000000000000000000000024fabc1cbc000000000000000000000000000000000000000000000000000000000000000000000000000000000000000000000000000000000000000000000000000000000000000000000000000000000000000000000000000000000000000000000000000041000000000000000000000000c06fd4f821eac1ff1ae8067b36342899b57baa2d0000000000000000000000000000000000000000000000000000000000000000010000000000000000000000000000000000000000000000000000000000000000000000000000000000000000000000000000000000000000000000",
  "operation": 0,
  "gasToken": "0x0000000000000000000000000000000000000000",
  "safeTxGas": 0,
  "baseGas": 0,
  "gasPrice": "0",
  "refundReceiver": "0x0000000000000000000000000000000000000000",
  "nonce": 11,
  "executionDate": "2025-05-07T21:43:23Z",
  "submissionDate": "2025-05-07T21:34:39.551548Z",
  "modified": "2025-05-07T21:43:29.833631Z",
  "blockNumber": 22434463,
  "transactionHash": "0x60e32a42272507ad4617f560e09d31c9f5f0069785116b30a06f78f32e8ee4b3",
  "safeTxHash": "0xff798fe974012ed19a6c3bdd16a8bda22831a6641f49104427321af6d7be9a14",
  "proposer": "0x9229C290F60F303884073F28EB8E81F9B82506d5",
  "proposedByDelegate": null,
  "executor": "0xc5280E368648b0e192b355c7d8330593bA7af700",
  "isExecuted": true,
  "isSuccessful": true,
  "ethGasPrice": "486611214",
  "maxFeePerGas": "486611214",
  "maxPriorityFeePerGas": "44237383",
  "gasUsed": 140943,
  "fee": "68584444334802",
  "origin": "{}",
  "dataDecoded": {
    "method": "execute",
    "parameters": [
      {
        "name": "target",
        "type": "address",
        "value": "0x369e6F597e22EaB55fFb173C6d9cD234BD699111"
      },
      {
        "name": "value",
        "type": "uint256",
        "value": "0"
      },
      {
        "name": "payload",
        "type": "bytes",
        "value": "0x6a76120200000000000000000000000040a2accbd92bca938b02010e17a5b8929b49130d00000000000000000000000000000000000000000000000000000000000000000000000000000000000000000000000000000000000000000000000000000140000000000000000000000000000000000000000000000000000000000000000100000000000000000000000000000000000000000000000000000000000000000000000000000000000000000000000000000000000000000000000000000000000000000000000000000000000000000000000000000000000000000000000000000000000000000000000000000000000000000000000000000000000000000000000000000000000000000000000000000000000000000000000000000000000000000000000000000000000000000000000000000000000000000000024000000000000000000000000000000000000000000000000000000000000000c48d80ff0a000000000000000000000000000000000000000000000000000000000000002000000000000000000000000000000000000000000000000000000000000000790091e677b07f7af907ec9a428aafa9fc14a0d3a33800000000000000000000000000000000000000000000000000000000000000000000000000000000000000000000000000000000000000000000000000000024fabc1cbc000000000000000000000000000000000000000000000000000000000000000000000000000000000000000000000000000000000000000000000000000000000000000000000000000000000000000000000000000000000000000000000000000041000000000000000000000000c06fd4f821eac1ff1ae8067b36342899b57baa2d00000000000000000000000000000000000000000000000000000000000000000100000000000000000000000000000000000000000000000000000000000000"
      },
      {
        "name": "predecessor",
        "type": "bytes32",
        "value": "0xb4c4773e2022f944e0bb49bfebc15ff216bac202ee91f87adcc06b4018ca1318"
      },
      {
        "name": "salt",
        "type": "bytes32",
        "value": "0x0000000000000000000000000000000000000000000000000000000000000000"
      }
    ]
  },
  "confirmationsRequired": 3,
  "confirmations": [
    {
      "owner": "0x9229C290F60F303884073F28EB8E81F9B82506d5",
      "submissionDate": "2025-05-07T21:34:39.872244Z",
      "transactionHash": null,
      "signature": "0xb2f1b1bf0a3b712154744734d98665ca0453c9956d0693c35db65516c596a7034ac8144498bbd17f149ccfe4dd50458cb28546e596d6118799dbeb3475c05b951b",
      "signatureType": "EOA"
    },
    {
      "owner": "0xC6F9BDEEdEf78c2Cd146cdA31C82F76ca14A2927",
      "submissionDate": "2025-05-07T21:39:30.851372Z",
      "transactionHash": null,
      "signature": "0x32a7c38315784ccd6cc8f3a0bd4280d82e0c1a0598753c3469f0dabc2c95ef3332204d22531f06c8dbf4f047b33a56195f34af70cb4e601fc06cd7f4e027542c1b",
      "signatureType": "EOA"
    },
    {
      "owner": "0xc5280E368648b0e192b355c7d8330593bA7af700",
      "submissionDate": "2025-05-07T21:41:14.094172Z",
      "transactionHash": null,
      "signature": "0x6306164ad26bf6c2540dcef7f9c65282abeb3438bc286373f89353333646187e4f2754c86215ee0d4744ad4d6094db9ddd65bad74a3fec213a94975ee43e8a691b",
      "signatureType": "EOA"
    }
  ],
  "trusted": true,
  "signatures": "0xb2f1b1bf0a3b712154744734d98665ca0453c9956d0693c35db65516c596a7034ac8144498bbd17f149ccfe4dd50458cb28546e596d6118799dbeb3475c05b951b6306164ad26bf6c2540dcef7f9c65282abeb3438bc286373f89353333646187e4f2754c86215ee0d4744ad4d6094db9ddd65bad74a3fec213a94975ee43e8a691b32a7c38315784ccd6cc8f3a0bd4280d82e0c1a0598753c3469f0dabc2c95ef3332204d22531f06c8dbf4f047b33a56195f34af70cb4e601fc06cd7f4e027542c1b"
}