{
  "safe": "0x314A6B61B5CBFA79dc7b2c0416e039822E886b54",
  "to": "0x7c66A1e862E11C4887270aBd649157ACe837A2D0",
  "value": "0",
  "data": "0x134008d300000000000000000000000084e5e0d6f6c3153057bd5d661be1ff1766ceac08000000000000000000000000000000000000000000000000000000000000000000000000000000000000000000000000000000000000000000000000000000a043e8e56a767f5a57634b62ea942146c65c707b962e170afbaae28cae498aaec7000000000000000000000000000000000000000000000000000000000000000000000000000000000000000000000000000000000000000000000000000002c46a76120200000000000000000000000040a2accbd92bca938b02010e17a5b8929b49130d00000000000000000000000000000000000000000000000000000000000000000000000000000000000000000000000000000000000000000000000000000140000000000000000000000000000000000000000000000000000000000000000100000000000000000000000000000000000000000000000000000000000000000000000000000000000000000000000000000000000000000000000000000000000000000000000000000000000000000000000000000000000000000000000000000000000000000000000000000000000000000000000000000000000000000000000000000000000000000000000000000000000000000000000000000000000000000000000000000000000000000000000000000000000000000000024000000000000000000000000000000000000000000000000000000000000000c48d80ff0a0000000000000000000000000000000000000000000000000000000000000020000000000000000000000000000000000000000000000000000000000000007900b8d8952f572e67b11e43bc21250967772fa883ff00000000000000000000000000000000000000000000000000000000000000000000000000000000000000000000000000000000000000000000000000000024fabc1cbc0000000000000000000000000000000000000000000000000000000000000000000000000000000000000000000000000000000000000000000000000000000000000000000000000000000000000000000000000000000000000000000000000000410000000000000000000000007c66a1e862e11c4887270abd649157ace837a2d00000000000000000000000000000000000000000000000000000000000000000010000000000000000000000000000000000000000000000000000000000000000000000000000000000000000000000000000000000000000000000",
  "operation": 0,
  "gasToken": "0x0000000000000000000000000000000000000000",
  "safeTxGas": 0,
  "baseGas": 0,
  "gasPrice": "0",
  "refundReceiver": "0x0000000000000000000000000000000000000000",
  "nonce": 15,
  "executionDate": null,
  "submissionDate": "2025-03-12T21:44:11.638447Z",
  "modified": "2025-03-12T21:44:11.796039Z",
  "blockNumber": null,
  "transactionHash": null,
  "safeTxHash": "0xffe2f018a3a2aa41c34017bc445a2fd03fb0e0325040861262422e4d92f820d6",
  "proposer": "0xDA29BB71669f46F2a779b4b62f03644A84eE3479",
  "executor": null,
  "isExecuted": false,
  "isSuccessful": null,
  "ethGasPrice": null,
  "maxFeePerGas": null,
  "maxPriorityFeePerGas": null,
  "gasUsed": null,
  "fee": null,
  "origin": "{}",
  "dataDecoded": {
    "method": "execute",
    "parameters": [
      {
        "name": "target",
        "type": "address",
        "value": "0x84E5e0D6f6c3153057bd5d661Be1ff1766cEac08"
      },
      {
        "name": "value",
        "type": "uint256",
        "value": "0"
      },
      {
        "name": "payload",
        "type": "bytes",
        "value": "0x6a76120200000000000000000000000040a2accbd92bca938b02010e17a5b8929b49130d00000000000000000000000000000000000000000000000000000000000000000000000000000000000000000000000000000000000000000000000000000140000000000000000000000000000000000000000000000000000000000000000100000000000000000000000000000000000000000000000000000000000000000000000000000000000000000000000000000000000000000000000000000000000000000000000000000000000000000000000000000000000000000000000000000000000000000000000000000000000000000000000000000000000000000000000000000000000000000000000000000000000000000000000000000000000000000000000000000000000000000000000000000000000000000000024000000000000000000000000000000000000000000000000000000000000000c48d80ff0a0000000000000000000000000000000000000000000000000000000000000020000000000000000000000000000000000000000000000000000000000000007900b8d8952f572e67b11e43bc21250967772fa883ff00000000000000000000000000000000000000000000000000000000000000000000000000000000000000000000000000000000000000000000000000000024fabc1cbc0000000000000000000000000000000000000000000000000000000000000000000000000000000000000000000000000000000000000000000000000000000000000000000000000000000000000000000000000000000000000000000000000000410000000000000000000000007c66a1e862e11c4887270abd649157ace837a2d000000000000000000000000000000000000000000000000000000000000000000100000000000000000000000000000000000000000000000000000000000000"
      },
      {
        "name": "predecessor",
        "type": "bytes32",
        "value": "0x43e8e56a767f5a57634b62ea942146c65c707b962e170afbaae28cae498aaec7"
      },
      {
        "name": "salt",
        "type": "bytes32",
        "value": "0x0000000000000000000000000000000000000000000000000000000000000000"
      }
    ]
  },
  "confirmationsRequired": 1,
  "confirmations": [
    {
      "owner": "0xDA29BB71669f46F2a779b4b62f03644A84eE3479",
      "submissionDate": "2025-03-12T21:44:11.796039Z",
      "transactionHash": null,
      "signature": "0x0bb8e6595df5bc5d76e7c6916f3e31d43f592a69c0c5c82f87234fc32293f6f1525e11bf38e19f2145c1ecfef84e098b370ffb3b4444d83bb440d8fa72049fc91c",
      "signatureType": "EOA"
    }
  ],
  "trusted": true,
  "signatures": null
}