{
  "safe": "0xfaEF7338b7490b9E272d80A1a39f4657cAf2b97d",
  "to": "0x5e83c7d195318A5acf46B29E5810DdC323b2F6fD",
  "value": "0",
  "data": "0x01d5062a00000000000000000000000028ade60640fdbdb2609d8d8734d1b5cbefc0c348000000000000000000000000000000000000000000000000000000000000000000000000000000000000000000000000000000000000000000000000000000c000000000000000000000000000000000000000000000000000000000000000000000000000000000000000000000000000000000000000000000000000000000000000000000000000000000000000000000000000000000000000000000000100000000000000000000000000000000000000000000000000000000000003846a76120200000000000000000000000040a2accbd92bca938b02010e17a5b8929b49130d00000000000000000000000000000000000000000000000000000000000000000000000000000000000000000000000000000000000000000000000000000140000000000000000000000000000000000000000000000000000000000000000100000000000000000000000000000000000000000000000000000000000000000000000000000000000000000000000000000000000000000000000000000000000000000000000000000000000000000000000000000000000000000000000000000000000000000000000000000000000000000000000000000000000000000000000000000000000000000000000000000000000000000000000000000000000000000000000000000000000000000000000000000000000000000000030000000000000000000000000000000000000000000000000000000000000001848d80ff0a0000000000000000000000000000000000000000000000000000000000000020000000000000000000000000000000000000000000000000000000000000013200db023566064246399b4ae851197a97729c93a6cf0000000000000000000000000000000000000000000000000000000000000000000000000000000000000000000000000000000000000000000000000000004499a88ec400000000000000000000000078469728304326cbc65f8f95fa756b0b73164462000000000000000000000000a24898174701ff888b127e65c827e441f4bc968a00db023566064246399b4ae851197a97729c93a6cf0000000000000000000000000000000000000000000000000000000000000000000000000000000000000000000000000000000000000000000000000000004499a88ec4000000000000000000000000a44151489861fe9e3055d95adc98fbd462b948e70000000000000000000000005c798965208a6fddec2ea8505c544065645c410600000000000000000000000000000000000000000000000000000000000000000000000000000000000000000000000000000000000000000000000000000000000000000000000000410000000000000000000000005e83c7d195318a5acf46b29e5810ddc323b2f6fd0000000000000000000000000000000000000000000000000000000000000000010000000000000000000000000000000000000000000000000000000000000000000000000000000000000000000000000000000000000000000000",
  "operation": 0,
  "gasToken": "0x0000000000000000000000000000000000000000",
  "safeTxGas": 0,
  "baseGas": 0,
  "gasPrice": "0",
  "refundReceiver": "0x0000000000000000000000000000000000000000",
  "nonce": 29,
  "executionDate": "2025-04-29T19:59:00Z",
  "submissionDate": "2025-04-29T19:37:02.537656Z",
  "modified": "2025-04-29T19:59:00Z",
  "blockNumber": 3757077,
  "transactionHash": "0xf8e421bf410e9aaaada5bf017f3e375ae8c70b44bce0cc731921f03035cc967d",
  "safeTxHash": "0x09be380937dcbf4698cb6ee79e2054b1dff7110e446ee73767f85cc308c9e345",
  "proposer": "0x6c64B7DD01aB73ABEaf8D79f906C9C608f2D4033",
  "proposedByDelegate": null,
  "executor": "0x035cf1527fad417Fe75165DE03aEa113aa92db07",
  "isExecuted": true,
  "isSuccessful": true,
  "ethGasPrice": "1078469",
  "maxFeePerGas": "1078476",
  "maxPriorityFeePerGas": "1078462",
  "gasUsed": 120628,
  "fee": "130093558532",
  "origin": "{}",
  "dataDecoded": {
    "method": "schedule",
    "parameters": [
      {
        "name": "target",
        "type": "address",
        "value": "0x28Ade60640fdBDb2609D8d8734D1b5cBeFc0C348"
      },
      {
        "name": "value",
        "type": "uint256",
        "value": "0"
      },
      {
        "name": "data",
        "type": "bytes",
        "value": "0x6a76120200000000000000000000000040a2accbd92bca938b02010e17a5b8929b49130d00000000000000000000000000000000000000000000000000000000000000000000000000000000000000000000000000000000000000000000000000000140000000000000000000000000000000000000000000000000000000000000000100000000000000000000000000000000000000000000000000000000000000000000000000000000000000000000000000000000000000000000000000000000000000000000000000000000000000000000000000000000000000000000000000000000000000000000000000000000000000000000000000000000000000000000000000000000000000000000000000000000000000000000000000000000000000000000000000000000000000000000000000000000000000000000030000000000000000000000000000000000000000000000000000000000000001848d80ff0a0000000000000000000000000000000000000000000000000000000000000020000000000000000000000000000000000000000000000000000000000000013200db023566064246399b4ae851197a97729c93a6cf0000000000000000000000000000000000000000000000000000000000000000000000000000000000000000000000000000000000000000000000000000004499a88ec400000000000000000000000078469728304326cbc65f8f95fa756b0b73164462000000000000000000000000a24898174701ff888b127e65c827e441f4bc968a00db023566064246399b4ae851197a97729c93a6cf0000000000000000000000000000000000000000000000000000000000000000000000000000000000000000000000000000000000000000000000000000004499a88ec4000000000000000000000000a44151489861fe9e3055d95adc98fbd462b948e70000000000000000000000005c798965208a6fddec2ea8505c544065645c410600000000000000000000000000000000000000000000000000000000000000000000000000000000000000000000000000000000000000000000000000000000000000000000000000410000000000000000000000005e83c7d195318a5acf46b29e5810ddc323b2f6fd00000000000000000000000000000000000000000000000000000000000000000100000000000000000000000000000000000000000000000000000000000000"
      },
      {
        "name": "predecessor",
        "type": "bytes32",
        "value": "0x0000000000000000000000000000000000000000000000000000000000000000"
      },
      {
        "name": "salt",
        "type": "bytes32",
        "value": "0x0000000000000000000000000000000000000000000000000000000000000000"
      },
      {
        "name": "delay",
        "type": "uint256",
        "value": "1"
      }
    ]
  },
  "confirmationsRequired": 2,
  "confirmations": [
    {
      "owner": "0x6c64B7DD01aB73ABEaf8D79f906C9C608f2D4033",
      "submissionDate": "2025-04-29T19:37:02.592785Z",
      "transactionHash": null,
      "signature": "0xa2cc76db18a9d13669fd70bf0e0148a1540828c4bfc48ff5d3a2e57e95fa51834b8b4a7c442e46a4a84f0f7814e05d6b6fe0ce45d9afb6b3f8d45111dd2518ce1c",
      "signatureType": "EOA"
    },
    {
      "owner": "0x035cf1527fad417Fe75165DE03aEa113aa92db07",
      "submissionDate": "2025-04-29T19:59:00Z",
      "transactionHash": null,
      "signature": "0x000000000000000000000000035cf1527fad417fe75165de03aea113aa92db07000000000000000000000000000000000000000000000000000000000000000001",
      "signatureType": "APPROVED_HASH"
    }
  ],
  "trusted": true,
  "signatures": "0x000000000000000000000000035cf1527fad417fe75165de03aea113aa92db07000000000000000000000000000000000000000000000000000000000000000001a2cc76db18a9d13669fd70bf0e0148a1540828c4bfc48ff5d3a2e57e95fa51834b8b4a7c442e46a4a84f0f7814e05d6b6fe0ce45d9afb6b3f8d45111dd2518ce1c"
}