{
  "safe": "0xd140eE77d9e62901d8cEFf199d3ef4Dd1F4Eaff4",
  "to": "0x5e83c7d195318A5acf46B29E5810DdC323b2F6fD",
  "value": "0",
  "data": "0x134008d300000000000000000000000028ade60640fdbdb2609d8d8734d1b5cbefc0c348000000000000000000000000000000000000000000000000000000000000000000000000000000000000000000000000000000000000000000000000000000a00000000000000000000000000000000000000000000000000000000000000000000000000000000000000000000000000000000000000000000000000000000000000000000000000000000000000000000000000000000000000000000003846a76120200000000000000000000000040a2accbd92bca938b02010e17a5b8929b49130d00000000000000000000000000000000000000000000000000000000000000000000000000000000000000000000000000000000000000000000000000000140000000000000000000000000000000000000000000000000000000000000000100000000000000000000000000000000000000000000000000000000000000000000000000000000000000000000000000000000000000000000000000000000000000000000000000000000000000000000000000000000000000000000000000000000000000000000000000000000000000000000000000000000000000000000000000000000000000000000000000000000000000000000000000000000000000000000000000000000000000000000000000000000000000000000030000000000000000000000000000000000000000000000000000000000000001848d80ff0a0000000000000000000000000000000000000000000000000000000000000020000000000000000000000000000000000000000000000000000000000000013200db023566064246399b4ae851197a97729c93a6cf0000000000000000000000000000000000000000000000000000000000000000000000000000000000000000000000000000000000000000000000000000004499a88ec400000000000000000000000078469728304326cbc65f8f95fa756b0b73164462000000000000000000000000a24898174701ff888b127e65c827e441f4bc968a00db023566064246399b4ae851197a97729c93a6cf0000000000000000000000000000000000000000000000000000000000000000000000000000000000000000000000000000000000000000000000000000004499a88ec4000000000000000000000000a44151489861fe9e3055d95adc98fbd462b948e70000000000000000000000005c798965208a6fddec2ea8505c544065645c410600000000000000000000000000000000000000000000000000000000000000000000000000000000000000000000000000000000000000000000000000000000000000000000000000410000000000000000000000005e83c7d195318a5acf46b29e5810ddc323b2f6fd0000000000000000000000000000000000000000000000000000000000000000010000000000000000000000000000000000000000000000000000000000000000000000000000000000000000000000000000000000000000000000",
  "operation": 0,
  "gasToken": "0x0000000000000000000000000000000000000000",
  "safeTxGas": 0,
  "baseGas": 0,
  "gasPrice": "0",
  "refundReceiver": "0x0000000000000000000000000000000000000000",
  "nonce": 21,
  "executionDate": "2025-04-29T20:06:12Z",
  "submissionDate": "2025-04-29T20:01:18.077883Z",
  "modified": "2025-04-29T20:06:12Z",
  "blockNumber": 3757108,
  "transactionHash": "0xf19f083b576e7d1166bc79e8de15e597cdb4bf61616861130b52b3497b5f891b",
  "safeTxHash": "0x71c80b4c4f8a7dd8dbbb86446dbd61461bc4c075d898e864233a44fd3950776e",
  "proposer": "0x6c64B7DD01aB73ABEaf8D79f906C9C608f2D4033",
  "proposedByDelegate": null,
  "executor": "0x035cf1527fad417Fe75165DE03aEa113aa92db07",
  "isExecuted": true,
  "isSuccessful": true,
  "ethGasPrice": "1078469",
  "maxFeePerGas": "1078476",
  "maxPriorityFeePerGas": "1078462",
  "gasUsed": 175404,
  "fee": "189167776476",
  "origin": "{}",
  "dataDecoded": {
    "method": "execute",
    "parameters": [
      {
        "name": "target",
        "type": "address",
        "value": "0x28Ade60640fdBDb2609D8d8734D1b5cBeFc0C348"
      },
      {
        "name": "value",
        "type": "uint256",
        "value": "0"
      },
      {
        "name": "payload",
        "type": "bytes",
        "value": "0x6a76120200000000000000000000000040a2accbd92bca938b02010e17a5b8929b49130d00000000000000000000000000000000000000000000000000000000000000000000000000000000000000000000000000000000000000000000000000000140000000000000000000000000000000000000000000000000000000000000000100000000000000000000000000000000000000000000000000000000000000000000000000000000000000000000000000000000000000000000000000000000000000000000000000000000000000000000000000000000000000000000000000000000000000000000000000000000000000000000000000000000000000000000000000000000000000000000000000000000000000000000000000000000000000000000000000000000000000000000000000000000000000000000030000000000000000000000000000000000000000000000000000000000000001848d80ff0a0000000000000000000000000000000000000000000000000000000000000020000000000000000000000000000000000000000000000000000000000000013200db023566064246399b4ae851197a97729c93a6cf0000000000000000000000000000000000000000000000000000000000000000000000000000000000000000000000000000000000000000000000000000004499a88ec400000000000000000000000078469728304326cbc65f8f95fa756b0b73164462000000000000000000000000a24898174701ff888b127e65c827e441f4bc968a00db023566064246399b4ae851197a97729c93a6cf0000000000000000000000000000000000000000000000000000000000000000000000000000000000000000000000000000000000000000000000000000004499a88ec4000000000000000000000000a44151489861fe9e3055d95adc98fbd462b948e70000000000000000000000005c798965208a6fddec2ea8505c544065645c410600000000000000000000000000000000000000000000000000000000000000000000000000000000000000000000000000000000000000000000000000000000000000000000000000410000000000000000000000005e83c7d195318a5acf46b29e5810ddc323b2f6fd00000000000000000000000000000000000000000000000000000000000000000100000000000000000000000000000000000000000000000000000000000000"
      },
      {
        "name": "predecessor",
        "type": "bytes32",
        "value": "0x0000000000000000000000000000000000000000000000000000000000000000"
      },
      {
        "name": "salt",
        "type": "bytes32",
        "value": "0x0000000000000000000000000000000000000000000000000000000000000000"
      }
    ]
  },
  "confirmationsRequired": 2,
  "confirmations": [
    {
      "owner": "0x6c64B7DD01aB73ABEaf8D79f906C9C608f2D4033",
      "submissionDate": "2025-04-29T20:01:18.140568Z",
      "transactionHash": null,
      "signature": "0xb722df1e43eefdbbeff728df2e5d4f037d7c3b4962e1604ebf2b8ec2cb7158a32afe276a53c5087207293636bde81c0b9b83769fb1c6a00931e2cad30b3b27bd1c",
      "signatureType": "EOA"
    },
    {
      "owner": "0x035cf1527fad417Fe75165DE03aEa113aa92db07",
      "submissionDate": "2025-04-29T20:06:12Z",
      "transactionHash": null,
      "signature": "0x000000000000000000000000035cf1527fad417fe75165de03aea113aa92db07000000000000000000000000000000000000000000000000000000000000000001",
      "signatureType": "APPROVED_HASH"
    }
  ],
  "trusted": true,
  "signatures": "0x000000000000000000000000035cf1527fad417fe75165de03aea113aa92db07000000000000000000000000000000000000000000000000000000000000000001b722df1e43eefdbbeff728df2e5d4f037d7c3b4962e1604ebf2b8ec2cb7158a32afe276a53c5087207293636bde81c0b9b83769fb1c6a00931e2cad30b3b27bd1c"
}