{
  "safe": "0xfaEF7338b7490b9E272d80A1a39f4657cAf2b97d",
  "to": "0x5e83c7d195318A5acf46B29E5810DdC323b2F6fD",
  "value": "0",
  "data": "0x01d5062a00000000000000000000000028ade60640fdbdb2609d8d8734d1b5cbefc0c348000000000000000000000000000000000000000000000000000000000000000000000000000000000000000000000000000000000000000000000000000000c000000000000000000000000000000000000000000000000000000000000000000000000000000000000000000000000000000000000000000000000000000000000000000000000000000000000000000000000000000000000000000000000100000000000000000000000000000000000000000000000000000000000004046a76120200000000000000000000000040a2accbd92bca938b02010e17a5b8929b49130d00000000000000000000000000000000000000000000000000000000000000000000000000000000000000000000000000000000000000000000000000000140000000000000000000000000000000000000000000000000000000000000000100000000000000000000000000000000000000000000000000000000000000000000000000000000000000000000000000000000000000000000000000000000000000000000000000000000000000000000000000000000000000000000000000000000000000000000000000000000000000000000000000000000000000000000000000000000000000000000000000000000000000000000000000000000000000000000000000000000000000000000000000000000000000000000038000000000000000000000000000000000000000000000000000000000000002048d80ff0a000000000000000000000000000000000000000000000000000000000000002000000000000000000000000000000000000000000000000000000000000001ab00db023566064246399b4ae851197a97729c93a6cf0000000000000000000000000000000000000000000000000000000000000000000000000000000000000000000000000000000000000000000000000000004499a88ec4000000000000000000000000a44151489861fe9e3055d95adc98fbd462b948e7000000000000000000000000bca04e4b27a31b500289e49344175843a2e3cc9c007261c2bd75a7ace1762f6d7fae8f63215581832d000000000000000000000000000000000000000000000000000000000000000000000000000000000000000000000000000000000000000000000000000000243659cfe6000000000000000000000000454b7ae61efad9c2455ef4e8604a13659345310900db023566064246399b4ae851197a97729c93a6cf0000000000000000000000000000000000000000000000000000000000000000000000000000000000000000000000000000000000000000000000000000004499a88ec400000000000000000000000030770d7e3e71112d7a6b7259542d1f680a70e315000000000000000000000000e93f791bc0cc4c3c91cbbba4840de9f7fc590b150000000000000000000000000000000000000000000000000000000000000000000000000000000000000000000000000000000000000000000000000000000000000000000000000000000000000000410000000000000000000000005e83c7d195318a5acf46b29e5810ddc323b2f6fd0000000000000000000000000000000000000000000000000000000000000000010000000000000000000000000000000000000000000000000000000000000000000000000000000000000000000000000000000000000000000000",
  "operation": 0,
  "gasToken": "0x0000000000000000000000000000000000000000",
  "safeTxGas": 0,
  "baseGas": 0,
  "gasPrice": "0",
  "refundReceiver": "0x0000000000000000000000000000000000000000",
  "nonce": 26,
  "executionDate": "2025-04-03T18:40:48Z",
  "submissionDate": "2025-04-03T18:32:13.538960Z",
  "modified": "2025-04-03T18:40:48Z",
  "blockNumber": 3609510,
  "transactionHash": "0x7bf9ce6afee01e857b547662127d2d1dd23ee6ff642e8c6335450c8fc50f6b75",
  "safeTxHash": "0xc4f3eae99526e3aaca7bcd01932f1c1cb1e9797d24729694fb8ae32d41068032",
  "proposer": "0x6c64B7DD01aB73ABEaf8D79f906C9C608f2D4033",
  "executor": "0x845FDF97F8022BCf7c4dfe1Be5CE9f0aC80ba58f",
  "isExecuted": true,
  "isSuccessful": true,
  "ethGasPrice": "1707810",
  "maxFeePerGas": "1707818",
  "maxPriorityFeePerGas": "1707802",
  "gasUsed": 123925,
  "fee": "211640354250",
  "origin": "{}",
  "dataDecoded": {
    "method": "schedule",
    "parameters": [
      {
        "name": "target",
        "type": "address",
        "value": "0x28Ade60640fdBDb2609D8d8734D1b5cBeFc0C348"
      },
      {
        "name": "value",
        "type": "uint256",
        "value": "0"
      },
      {
        "name": "data",
        "type": "bytes",
        "value": "0x6a76120200000000000000000000000040a2accbd92bca938b02010e17a5b8929b49130d00000000000000000000000000000000000000000000000000000000000000000000000000000000000000000000000000000000000000000000000000000140000000000000000000000000000000000000000000000000000000000000000100000000000000000000000000000000000000000000000000000000000000000000000000000000000000000000000000000000000000000000000000000000000000000000000000000000000000000000000000000000000000000000000000000000000000000000000000000000000000000000000000000000000000000000000000000000000000000000000000000000000000000000000000000000000000000000000000000000000000000000000000000000000000000000038000000000000000000000000000000000000000000000000000000000000002048d80ff0a000000000000000000000000000000000000000000000000000000000000002000000000000000000000000000000000000000000000000000000000000001ab00db023566064246399b4ae851197a97729c93a6cf0000000000000000000000000000000000000000000000000000000000000000000000000000000000000000000000000000000000000000000000000000004499a88ec4000000000000000000000000a44151489861fe9e3055d95adc98fbd462b948e7000000000000000000000000bca04e4b27a31b500289e49344175843a2e3cc9c007261c2bd75a7ace1762f6d7fae8f63215581832d000000000000000000000000000000000000000000000000000000000000000000000000000000000000000000000000000000000000000000000000000000243659cfe6000000000000000000000000454b7ae61efad9c2455ef4e8604a13659345310900db023566064246399b4ae851197a97729c93a6cf0000000000000000000000000000000000000000000000000000000000000000000000000000000000000000000000000000000000000000000000000000004499a88ec400000000000000000000000030770d7e3e71112d7a6b7259542d1f680a70e315000000000000000000000000e93f791bc0cc4c3c91cbbba4840de9f7fc590b150000000000000000000000000000000000000000000000000000000000000000000000000000000000000000000000000000000000000000000000000000000000000000000000000000000000000000410000000000000000000000005e83c7d195318a5acf46b29e5810ddc323b2f6fd00000000000000000000000000000000000000000000000000000000000000000100000000000000000000000000000000000000000000000000000000000000"
      },
      {
        "name": "predecessor",
        "type": "bytes32",
        "value": "0x0000000000000000000000000000000000000000000000000000000000000000"
      },
      {
        "name": "salt",
        "type": "bytes32",
        "value": "0x0000000000000000000000000000000000000000000000000000000000000000"
      },
      {
        "name": "delay",
        "type": "uint256",
        "value": "1"
      }
    ]
  },
  "confirmationsRequired": 2,
  "confirmations": [
    {
      "owner": "0x6c64B7DD01aB73ABEaf8D79f906C9C608f2D4033",
      "submissionDate": "2025-04-03T18:32:13.761207Z",
      "transactionHash": null,
      "signature": "0xd7323ea440fd515cba201ca3bf2f69979d16fe9279aa8d3d89acc45465100166507d5ece0a5db29ba53aec3038cf13984ad2959f9622f4d55bfa9a4cce6187051b",
      "signatureType": "EOA"
    },
    {
      "owner": "0x845FDF97F8022BCf7c4dfe1Be5CE9f0aC80ba58f",
      "submissionDate": "2025-04-03T18:40:48Z",
      "transactionHash": null,
      "signature": "0x000000000000000000000000845fdf97f8022bcf7c4dfe1be5ce9f0ac80ba58f000000000000000000000000000000000000000000000000000000000000000001",
      "signatureType": "APPROVED_HASH"
    }
  ],
  "trusted": true,
  "signatures": "0xd7323ea440fd515cba201ca3bf2f69979d16fe9279aa8d3d89acc45465100166507d5ece0a5db29ba53aec3038cf13984ad2959f9622f4d55bfa9a4cce6187051b000000000000000000000000845fdf97f8022bcf7c4dfe1be5ce9f0ac80ba58f000000000000000000000000000000000000000000000000000000000000000001"
}