{
  "safe": "0xfaEF7338b7490b9E272d80A1a39f4657cAf2b97d",
  "to": "0x5e83c7d195318A5acf46B29E5810DdC323b2F6fD",
  "value": "0",
  "data": "0x01d5062a00000000000000000000000028ade60640fdbdb2609d8d8734d1b5cbefc0c348000000000000000000000000000000000000000000000000000000000000000000000000000000000000000000000000000000000000000000000000000000c000000000000000000000000000000000000000000000000000000000000000000000000000000000000000000000000000000000000000000000000000000000000000000000000000000000000000000000000000000000000000000000000100000000000000000000000000000000000000000000000000000000000002e46a76120200000000000000000000000040a2accbd92bca938b02010e17a5b8929b49130d00000000000000000000000000000000000000000000000000000000000000000000000000000000000000000000000000000000000000000000000000000140000000000000000000000000000000000000000000000000000000000000000100000000000000000000000000000000000000000000000000000000000000000000000000000000000000000000000000000000000000000000000000000000000000000000000000000000000000000000000000000000000000000000000000000000000000000000000000000000000000000000000000000000000000000000000000000000000000000000000000000000000000000000000000000000000000000000000000000000000000000000000000000000000000000000026000000000000000000000000000000000000000000000000000000000000000e48d80ff0a0000000000000000000000000000000000000000000000000000000000000020000000000000000000000000000000000000000000000000000000000000009900275ccf9be51f4a6c94aba6114cdf2a4c45b9cb270000000000000000000000000000000000000000000000000000000000000000000000000000000000000000000000000000000000000000000000000000004466eb399f0000000000000000000000001d95fb363ee0f2cbf5ccdeba1a4b2e975de2a51c0000000000000000000000000000000000000000000000000000000000000001000000000000000000000000000000000000000000000000000000000000000000000000000000000000000000000000000000000000000000000000000000000000410000000000000000000000005e83c7d195318a5acf46b29e5810ddc323b2f6fd0000000000000000000000000000000000000000000000000000000000000000010000000000000000000000000000000000000000000000000000000000000000000000000000000000000000000000000000000000000000000000",
  "operation": 0,
  "gasToken": "0x0000000000000000000000000000000000000000",
  "safeTxGas": 0,
  "baseGas": 0,
  "gasPrice": "0",
  "refundReceiver": "0x0000000000000000000000000000000000000000",
  "nonce": 27,
  "executionDate": "2025-04-08T19:10:00Z",
  "submissionDate": "2025-04-08T19:06:34.175946Z",
  "modified": "2025-04-08T19:10:00Z",
  "blockNumber": 3639432,
  "transactionHash": "0x6b91884ba06a35e92dea653b98bb44fd37e45a2108907798e32cd90ff0d2c2aa",
  "safeTxHash": "0xadec5eff67dd2a321c71fbb1d47aebf763ceae160bae1f172038c155ba108f7a",
  "proposer": "0x27977e6E4426A525d055A587d2a0537b4cb376eA",
  "executor": "0x3E5Ab7bf85Ccf8A41c08BFe5414c405cb3114033",
  "isExecuted": true,
  "isSuccessful": true,
  "ethGasPrice": "1001816",
  "maxFeePerGas": "1001824",
  "maxPriorityFeePerGas": "1001808",
  "gasUsed": 116205,
  "fee": "116416028280",
  "origin": "{}",
  "dataDecoded": {
    "method": "schedule",
    "parameters": [
      {
        "name": "target",
        "type": "address",
        "value": "0x28Ade60640fdBDb2609D8d8734D1b5cBeFc0C348"
      },
      {
        "name": "value",
        "type": "uint256",
        "value": "0"
      },
      {
        "name": "data",
        "type": "bytes",
        "value": "0x6a76120200000000000000000000000040a2accbd92bca938b02010e17a5b8929b49130d00000000000000000000000000000000000000000000000000000000000000000000000000000000000000000000000000000000000000000000000000000140000000000000000000000000000000000000000000000000000000000000000100000000000000000000000000000000000000000000000000000000000000000000000000000000000000000000000000000000000000000000000000000000000000000000000000000000000000000000000000000000000000000000000000000000000000000000000000000000000000000000000000000000000000000000000000000000000000000000000000000000000000000000000000000000000000000000000000000000000000000000000000000000000000000000026000000000000000000000000000000000000000000000000000000000000000e48d80ff0a0000000000000000000000000000000000000000000000000000000000000020000000000000000000000000000000000000000000000000000000000000009900275ccf9be51f4a6c94aba6114cdf2a4c45b9cb270000000000000000000000000000000000000000000000000000000000000000000000000000000000000000000000000000000000000000000000000000004466eb399f0000000000000000000000001d95fb363ee0f2cbf5ccdeba1a4b2e975de2a51c0000000000000000000000000000000000000000000000000000000000000001000000000000000000000000000000000000000000000000000000000000000000000000000000000000000000000000000000000000000000000000000000000000410000000000000000000000005e83c7d195318a5acf46b29e5810ddc323b2f6fd00000000000000000000000000000000000000000000000000000000000000000100000000000000000000000000000000000000000000000000000000000000"
      },
      {
        "name": "predecessor",
        "type": "bytes32",
        "value": "0x0000000000000000000000000000000000000000000000000000000000000000"
      },
      {
        "name": "salt",
        "type": "bytes32",
        "value": "0x0000000000000000000000000000000000000000000000000000000000000000"
      },
      {
        "name": "delay",
        "type": "uint256",
        "value": "1"
      }
    ]
  },
  "confirmationsRequired": 2,
  "confirmations": [
    {
      "owner": "0x27977e6E4426A525d055A587d2a0537b4cb376eA",
      "submissionDate": "2025-04-08T19:06:34.205539Z",
      "transactionHash": null,
      "signature": "0x68b3142d72421bf0e9369bbe71d75fa9f687e17bb926a25ccc48a8e5edf738e869fe7c028c1a0cc926b0aa6b62e7331a2491f52c73ae148053a45335909682321c",
      "signatureType": "EOA"
    },
    {
      "owner": "0x3E5Ab7bf85Ccf8A41c08BFe5414c405cb3114033",
      "submissionDate": "2025-04-08T19:10:00Z",
      "transactionHash": null,
      "signature": "0x0000000000000000000000003e5ab7bf85ccf8a41c08bfe5414c405cb3114033000000000000000000000000000000000000000000000000000000000000000001",
      "signatureType": "APPROVED_HASH"
    }
  ],
  "trusted": true,
  "signatures": "0x68b3142d72421bf0e9369bbe71d75fa9f687e17bb926a25ccc48a8e5edf738e869fe7c028c1a0cc926b0aa6b62e7331a2491f52c73ae148053a45335909682321c0000000000000000000000003e5ab7bf85ccf8a41c08bfe5414c405cb3114033000000000000000000000000000000000000000000000000000000000000000001"
}