{
  "safe": "0xBE1685C81aA44FF9FB319dD389addd9374383e90",
  "to": "0xC06Fd4F821eaC1fF1ae8067b36342899b57BAa2d",
  "value": "0",
  "data": "0x01d5062a000000000000000000000000369e6f597e22eab55ffb173c6d9cd234bd699111000000000000000000000000000000000000000000000000000000000000000000000000000000000000000000000000000000000000000000000000000000c0b4c4773e2022f944e0bb49bfebc15ff216bac202ee91f87adcc06b4018ca1318000000000000000000000000000000000000000000000000000000000000000000000000000000000000000000000000000000000000000000000000000d2f0000000000000000000000000000000000000000000000000000000000000002c46a76120200000000000000000000000040a2accbd92bca938b02010e17a5b8929b49130d00000000000000000000000000000000000000000000000000000000000000000000000000000000000000000000000000000000000000000000000000000140000000000000000000000000000000000000000000000000000000000000000100000000000000000000000000000000000000000000000000000000000000000000000000000000000000000000000000000000000000000000000000000000000000000000000000000000000000000000000000000000000000000000000000000000000000000000000000000000000000000000000000000000000000000000000000000000000000000000000000000000000000000000000000000000000000000000000000000000000000000000000000000000000000000000024000000000000000000000000000000000000000000000000000000000000000c48d80ff0a000000000000000000000000000000000000000000000000000000000000002000000000000000000000000000000000000000000000000000000000000000790091e677b07f7af907ec9a428aafa9fc14a0d3a33800000000000000000000000000000000000000000000000000000000000000000000000000000000000000000000000000000000000000000000000000000024fabc1cbc000000000000000000000000000000000000000000000000000000000000000000000000000000000000000000000000000000000000000000000000000000000000000000000000000000000000000000000000000000000000000000000000000041000000000000000000000000c06fd4f821eac1ff1ae8067b36342899b57baa2d0000000000000000000000000000000000000000000000000000000000000000010000000000000000000000000000000000000000000000000000000000000000000000000000000000000000000000000000000000000000000000",
  "operation": 0,
  "gasToken": "0x0000000000000000000000000000000000000000",
  "safeTxGas": 0,
  "baseGas": 0,
  "gasPrice": "0",
  "refundReceiver": "0x0000000000000000000000000000000000000000",
  "nonce": 70,
  "executionDate": "2025-04-25T17:59:35Z",
  "submissionDate": "2025-04-25T17:45:05.731351Z",
  "modified": "2025-04-25T17:59:35Z",
  "blockNumber": 22347682,
  "transactionHash": "0xd4ea15388cf1030ad83a97c4998abdf95391213b228814b38d8a5ba7c3c2432c",
  "safeTxHash": "0x1a0a4f0b3a782bfd4bc0ef4dff9a89f229197c4dbf7838f29bf170c1476df3f3",
  "proposer": "0xdC541e2B4adD96888b2C79006F49A9748A4f1bDF",
  "proposedByDelegate": null,
  "executor": "0xb7Ae34BB33da55f12797e793E01e63a17B11d108",
  "isExecuted": true,
  "isSuccessful": true,
  "ethGasPrice": "1495722554",
  "maxFeePerGas": "1688131748",
  "maxPriorityFeePerGas": "104152920",
  "gasUsed": 106459,
  "fee": "159233127376286",
  "origin": "{}",
  "dataDecoded": {
    "method": "schedule",
    "parameters": [
      {
        "name": "target",
        "type": "address",
        "value": "0x369e6F597e22EaB55fFb173C6d9cD234BD699111"
      },
      {
        "name": "value",
        "type": "uint256",
        "value": "0"
      },
      {
        "name": "data",
        "type": "bytes",
        "value": "0x6a76120200000000000000000000000040a2accbd92bca938b02010e17a5b8929b49130d00000000000000000000000000000000000000000000000000000000000000000000000000000000000000000000000000000000000000000000000000000140000000000000000000000000000000000000000000000000000000000000000100000000000000000000000000000000000000000000000000000000000000000000000000000000000000000000000000000000000000000000000000000000000000000000000000000000000000000000000000000000000000000000000000000000000000000000000000000000000000000000000000000000000000000000000000000000000000000000000000000000000000000000000000000000000000000000000000000000000000000000000000000000000000000000024000000000000000000000000000000000000000000000000000000000000000c48d80ff0a000000000000000000000000000000000000000000000000000000000000002000000000000000000000000000000000000000000000000000000000000000790091e677b07f7af907ec9a428aafa9fc14a0d3a33800000000000000000000000000000000000000000000000000000000000000000000000000000000000000000000000000000000000000000000000000000024fabc1cbc000000000000000000000000000000000000000000000000000000000000000000000000000000000000000000000000000000000000000000000000000000000000000000000000000000000000000000000000000000000000000000000000000041000000000000000000000000c06fd4f821eac1ff1ae8067b36342899b57baa2d00000000000000000000000000000000000000000000000000000000000000000100000000000000000000000000000000000000000000000000000000000000"
      },
      {
        "name": "predecessor",
        "type": "bytes32",
        "value": "0xb4c4773e2022f944e0bb49bfebc15ff216bac202ee91f87adcc06b4018ca1318"
      },
      {
        "name": "salt",
        "type": "bytes32",
        "value": "0x0000000000000000000000000000000000000000000000000000000000000000"
      },
      {
        "name": "delay",
        "type": "uint256",
        "value": "864000"
      }
    ]
  },
  "confirmationsRequired": 3,
  "confirmations": [
    {
      "owner": "0xdC541e2B4adD96888b2C79006F49A9748A4f1bDF",
      "submissionDate": "2025-04-25T17:45:05.933567Z",
      "transactionHash": null,
      "signature": "0x6408887987c70ea57b40272e2608f558c66c8ba0dfb0ec0af8fdfd21fb6d50a545126495865e3168d1b7940db1fc1b83d67a0fa264f4d98c42b85369cc5f7fa41b",
      "signatureType": "EOA"
    },
    {
      "owner": "0xFBB1A3C8C8A99A2A4797250dF87E307Dc3f01Fe0",
      "submissionDate": "2025-04-25T17:54:26.800475Z",
      "transactionHash": null,
      "signature": "0xf8eb3d3da1df641474db3fc69699e139b3897d2e877dcb33fb53bf5615c7670a34f993822c62707a77c2e676fe3dc0e9b633efddaeba0e924ea17c4cedc503e01c",
      "signatureType": "EOA"
    },
    {
      "owner": "0xb7Ae34BB33da55f12797e793E01e63a17B11d108",
      "submissionDate": "2025-04-25T17:59:35Z",
      "transactionHash": null,
      "signature": "0x000000000000000000000000b7ae34bb33da55f12797e793e01e63a17b11d108000000000000000000000000000000000000000000000000000000000000000001",
      "signatureType": "APPROVED_HASH"
    }
  ],
  "trusted": true,
  "signatures": "0x000000000000000000000000b7ae34bb33da55f12797e793e01e63a17b11d1080000000000000000000000000000000000000000000000000000000000000000016408887987c70ea57b40272e2608f558c66c8ba0dfb0ec0af8fdfd21fb6d50a545126495865e3168d1b7940db1fc1b83d67a0fa264f4d98c42b85369cc5f7fa41bf8eb3d3da1df641474db3fc69699e139b3897d2e877dcb33fb53bf5615c7670a34f993822c62707a77c2e676fe3dc0e9b633efddaeba0e924ea17c4cedc503e01c"
}