{
  "safe": "0x461854d84Ee845F905e0eCf6C288DDEEb4A9533F",
  "to": "0xC06Fd4F821eaC1fF1ae8067b36342899b57BAa2d",
  "value": "0",
  "data": "0x134008d3000000000000000000000000369e6f597e22eab55ffb173c6d9cd234bd699111000000000000000000000000000000000000000000000000000000000000000000000000000000000000000000000000000000000000000000000000000000a00000000000000000000000000000000000000000000000000000000000000000000000000000000000000000000000000000000000000000000000000000000000000000000000000000000000000000000000000000000000000000000003e46a76120200000000000000000000000040a2accbd92bca938b02010e17a5b8929b49130d00000000000000000000000000000000000000000000000000000000000000000000000000000000000000000000000000000000000000000000000000000140000000000000000000000000000000000000000000000000000000000000000100000000000000000000000000000000000000000000000000000000000000000000000000000000000000000000000000000000000000000000000000000000000000000000000000000000000000000000000000000000000000000000000000000000000000000000000000000000000000000000000000000000000000000000000000000000000000000000000000000000000000000000000000000000000000000000000000000000000000000000000000000000000000000000036000000000000000000000000000000000000000000000000000000000000001e48d80ff0a0000000000000000000000000000000000000000000000000000000000000020000000000000000000000000000000000000000000000000000000000000018b005a2a4f2f3c18f09179b6703e63d9edd165909073000000000000000000000000000000000000000000000000000000000000000000000000000000000000000000000000000000000000000000000000000000243659cfe6000000000000000000000000e2e2db234b0ffb9afe41e52db7d3c2b8585646c3008b9566ada63b64d1e1dcf1418b43fd1433b724440000000000000000000000000000000000000000000000000000000000000000000000000000000000000000000000000000000000000000000000000000004499a88ec400000000000000000000000091e677b07f7af907ec9a428aafa9fc14a0d3a3380000000000000000000000008db49233e3b7691d68745a31e4a0cd9cf924b7e90091e677b07f7af907ec9a428aafa9fc14a0d3a338000000000000000000000000000000000000000000000000000000000000000000000000000000000000000000000000000000000000000000000000000000240d1e9de1000000000000000000000000be1685c81aa44ff9fb319dd389addd9374383e90000000000000000000000000000000000000000000000000000000000000000000000000000000000000000000000000000000000000000000000000000000000000000000000000000000000000000041000000000000000000000000c06fd4f821eac1ff1ae8067b36342899b57baa2d0000000000000000000000000000000000000000000000000000000000000000010000000000000000000000000000000000000000000000000000000000000000000000000000000000000000000000000000000000000000000000",
  "operation": 0,
  "gasToken": "0x0000000000000000000000000000000000000000",
  "safeTxGas": 0,
  "baseGas": 0,
  "gasPrice": "0",
  "refundReceiver": "0x0000000000000000000000000000000000000000",
  "nonce": 10,
  "executionDate": "2025-05-07T20:56:59Z",
  "submissionDate": "2025-05-07T20:46:50.618101Z",
  "modified": "2025-05-07T20:57:04.478298Z",
  "blockNumber": 22434239,
  "transactionHash": "0xa21ccea07638809e5c429ef2b354259ff13aee47b3a5c0452143e2bd162a0968",
  "safeTxHash": "0xf0cd4d9a3923af244f255bf216a4a657fede468c17c5f52ca2a399adcb2e1b07",
  "proposer": "0x9229C290F60F303884073F28EB8E81F9B82506d5",
  "proposedByDelegate": null,
  "executor": "0x9229C290F60F303884073F28EB8E81F9B82506d5",
  "isExecuted": true,
  "isSuccessful": true,
  "ethGasPrice": "509359331",
  "maxFeePerGas": "589040591",
  "maxPriorityFeePerGas": "79000000",
  "gasUsed": 187456,
  "fee": "95482462751936",
  "origin": "{}",
  "dataDecoded": {
    "method": "execute",
    "parameters": [
      {
        "name": "target",
        "type": "address",
        "value": "0x369e6F597e22EaB55fFb173C6d9cD234BD699111"
      },
      {
        "name": "value",
        "type": "uint256",
        "value": "0"
      },
      {
        "name": "payload",
        "type": "bytes",
        "value": "0x6a76120200000000000000000000000040a2accbd92bca938b02010e17a5b8929b49130d00000000000000000000000000000000000000000000000000000000000000000000000000000000000000000000000000000000000000000000000000000140000000000000000000000000000000000000000000000000000000000000000100000000000000000000000000000000000000000000000000000000000000000000000000000000000000000000000000000000000000000000000000000000000000000000000000000000000000000000000000000000000000000000000000000000000000000000000000000000000000000000000000000000000000000000000000000000000000000000000000000000000000000000000000000000000000000000000000000000000000000000000000000000000000000000036000000000000000000000000000000000000000000000000000000000000001e48d80ff0a0000000000000000000000000000000000000000000000000000000000000020000000000000000000000000000000000000000000000000000000000000018b005a2a4f2f3c18f09179b6703e63d9edd165909073000000000000000000000000000000000000000000000000000000000000000000000000000000000000000000000000000000000000000000000000000000243659cfe6000000000000000000000000e2e2db234b0ffb9afe41e52db7d3c2b8585646c3008b9566ada63b64d1e1dcf1418b43fd1433b724440000000000000000000000000000000000000000000000000000000000000000000000000000000000000000000000000000000000000000000000000000004499a88ec400000000000000000000000091e677b07f7af907ec9a428aafa9fc14a0d3a3380000000000000000000000008db49233e3b7691d68745a31e4a0cd9cf924b7e90091e677b07f7af907ec9a428aafa9fc14a0d3a338000000000000000000000000000000000000000000000000000000000000000000000000000000000000000000000000000000000000000000000000000000240d1e9de1000000000000000000000000be1685c81aa44ff9fb319dd389addd9374383e90000000000000000000000000000000000000000000000000000000000000000000000000000000000000000000000000000000000000000000000000000000000000000000000000000000000000000041000000000000000000000000c06fd4f821eac1ff1ae8067b36342899b57baa2d00000000000000000000000000000000000000000000000000000000000000000100000000000000000000000000000000000000000000000000000000000000"
      },
      {
        "name": "predecessor",
        "type": "bytes32",
        "value": "0x0000000000000000000000000000000000000000000000000000000000000000"
      },
      {
        "name": "salt",
        "type": "bytes32",
        "value": "0x0000000000000000000000000000000000000000000000000000000000000000"
      }
    ]
  },
  "confirmationsRequired": 3,
  "confirmations": [
    {
      "owner": "0x9229C290F60F303884073F28EB8E81F9B82506d5",
      "submissionDate": "2025-05-07T20:46:50.654828Z",
      "transactionHash": null,
      "signature": "0x8283a781a712c4cd995ddd226030b89d0280b8ac0a1c6545c0d548d6d996403f6b47508cce470a6a5aff48d76183ef3a5e561e11bd845eab82f05caa471819661c",
      "signatureType": "EOA"
    },
    {
      "owner": "0xC6F9BDEEdEf78c2Cd146cdA31C82F76ca14A2927",
      "submissionDate": "2025-05-07T20:51:12.228499Z",
      "transactionHash": null,
      "signature": "0x1f867a89c6b0ddd89dd7904d3e9fe62a53de15c063162c183a3b9c330ff30ec270e042d1a8fc60bfc1a24fc1bc5a003dedafab1d0a829be5b4044355a56c5f771c",
      "signatureType": "EOA"
    },
    {
      "owner": "0xc5280E368648b0e192b355c7d8330593bA7af700",
      "submissionDate": "2025-05-07T20:51:50.539765Z",
      "transactionHash": null,
      "signature": "0x15c1c7aed90d139f4d3a9b2bc0328a1afcb7b674ba54fb46332041a9d8619983742e158ac4625633ae492fe02421b74ad136924cb60f1e3c45d4ffed086246281c",
      "signatureType": "EOA"
    }
  ],
  "trusted": true,
  "signatures": "0x8283a781a712c4cd995ddd226030b89d0280b8ac0a1c6545c0d548d6d996403f6b47508cce470a6a5aff48d76183ef3a5e561e11bd845eab82f05caa471819661c15c1c7aed90d139f4d3a9b2bc0328a1afcb7b674ba54fb46332041a9d8619983742e158ac4625633ae492fe02421b74ad136924cb60f1e3c45d4ffed086246281c1f867a89c6b0ddd89dd7904d3e9fe62a53de15c063162c183a3b9c330ff30ec270e042d1a8fc60bfc1a24fc1bc5a003dedafab1d0a829be5b4044355a56c5f771c"
}