{
  "safe": "0xd140eE77d9e62901d8cEFf199d3ef4Dd1F4Eaff4",
  "to": "0x5e83c7d195318A5acf46B29E5810DdC323b2F6fD",
  "value": "0",
  "data": "0x134008d300000000000000000000000028ade60640fdbdb2609d8d8734d1b5cbefc0c348000000000000000000000000000000000000000000000000000000000000000000000000000000000000000000000000000000000000000000000000000000a06cad9177644f7814ed2685dead4b17fe2a78bfefa1f84835b8e481f3e997a1c1000000000000000000000000000000000000000000000000000000000000000000000000000000000000000000000000000000000000000000000000000002c46a76120200000000000000000000000040a2accbd92bca938b02010e17a5b8929b49130d00000000000000000000000000000000000000000000000000000000000000000000000000000000000000000000000000000000000000000000000000000140000000000000000000000000000000000000000000000000000000000000000100000000000000000000000000000000000000000000000000000000000000000000000000000000000000000000000000000000000000000000000000000000000000000000000000000000000000000000000000000000000000000000000000000000000000000000000000000000000000000000000000000000000000000000000000000000000000000000000000000000000000000000000000000000000000000000000000000000000000000000000000000000000000000000024000000000000000000000000000000000000000000000000000000000000000c48d80ff0a000000000000000000000000000000000000000000000000000000000000002000000000000000000000000000000000000000000000000000000000000000790030770d7e3e71112d7a6b7259542d1f680a70e31500000000000000000000000000000000000000000000000000000000000000000000000000000000000000000000000000000000000000000000000000000024fabc1cbc0000000000000000000000000000000000000000000000000000000000000000000000000000000000000000000000000000000000000000000000000000000000000000000000000000000000000000000000000000000000000000000000000000410000000000000000000000005e83c7d195318a5acf46b29e5810ddc323b2f6fd0000000000000000000000000000000000000000000000000000000000000000010000000000000000000000000000000000000000000000000000000000000000000000000000000000000000000000000000000000000000000000",
  "operation": 0,
  "gasToken": "0x0000000000000000000000000000000000000000",
  "safeTxGas": 0,
  "baseGas": 0,
  "gasPrice": "0",
  "refundReceiver": "0x0000000000000000000000000000000000000000",
  "nonce": 17,
  "executionDate": "2025-03-13T15:12:12Z",
  "submissionDate": "2025-03-13T15:06:33.410686Z",
  "modified": "2025-03-13T15:12:12Z",
  "blockNumber": 3484143,
  "transactionHash": "0x09e14c1cdf9acc7ce7214d0b8b7d512ebb5a9370725bb1ee7cb348598d4a886c",
  "safeTxHash": "0xcf98b680ca56d2f250c83ec507bbd2d9d017d22efeccf279070122bd793842fe",
  "proposer": "0xC1a501f5627229A7fF66F62a9e47A6CB377543Cf",
  "executor": "0x6c64B7DD01aB73ABEaf8D79f906C9C608f2D4033",
  "isExecuted": true,
  "isSuccessful": true,
  "ethGasPrice": "1985818",
  "maxFeePerGas": "3546424",
  "maxPriorityFeePerGas": "1000000",
  "gasUsed": 152887,
  "fee": "303605756566",
  "origin": "{}",
  "dataDecoded": {
    "method": "execute",
    "parameters": [
      {
        "name": "target",
        "type": "address",
        "value": "0x28Ade60640fdBDb2609D8d8734D1b5cBeFc0C348"
      },
      {
        "name": "value",
        "type": "uint256",
        "value": "0"
      },
      {
        "name": "payload",
        "type": "bytes",
        "value": "0x6a76120200000000000000000000000040a2accbd92bca938b02010e17a5b8929b49130d00000000000000000000000000000000000000000000000000000000000000000000000000000000000000000000000000000000000000000000000000000140000000000000000000000000000000000000000000000000000000000000000100000000000000000000000000000000000000000000000000000000000000000000000000000000000000000000000000000000000000000000000000000000000000000000000000000000000000000000000000000000000000000000000000000000000000000000000000000000000000000000000000000000000000000000000000000000000000000000000000000000000000000000000000000000000000000000000000000000000000000000000000000000000000000000024000000000000000000000000000000000000000000000000000000000000000c48d80ff0a000000000000000000000000000000000000000000000000000000000000002000000000000000000000000000000000000000000000000000000000000000790030770d7e3e71112d7a6b7259542d1f680a70e31500000000000000000000000000000000000000000000000000000000000000000000000000000000000000000000000000000000000000000000000000000024fabc1cbc0000000000000000000000000000000000000000000000000000000000000000000000000000000000000000000000000000000000000000000000000000000000000000000000000000000000000000000000000000000000000000000000000000410000000000000000000000005e83c7d195318a5acf46b29e5810ddc323b2f6fd00000000000000000000000000000000000000000000000000000000000000000100000000000000000000000000000000000000000000000000000000000000"
      },
      {
        "name": "predecessor",
        "type": "bytes32",
        "value": "0x6cad9177644f7814ed2685dead4b17fe2a78bfefa1f84835b8e481f3e997a1c1"
      },
      {
        "name": "salt",
        "type": "bytes32",
        "value": "0x0000000000000000000000000000000000000000000000000000000000000000"
      }
    ]
  },
  "confirmationsRequired": 2,
  "confirmations": [
    {
      "owner": "0xC1a501f5627229A7fF66F62a9e47A6CB377543Cf",
      "submissionDate": "2025-03-13T15:06:33.571633Z",
      "transactionHash": null,
      "signature": "0xdc43781c4b23ebe8b38bc0722bebc7af6f52d7f4503cb0d0cad2ee995cc06bd47d386adf4e43f9879ecd31662a4c2f2e63750f1755a1da6a763415ca70b3f1a01b",
      "signatureType": "EOA"
    },
    {
      "owner": "0x6c64B7DD01aB73ABEaf8D79f906C9C608f2D4033",
      "submissionDate": "2025-03-13T15:12:12Z",
      "transactionHash": null,
      "signature": "0x0000000000000000000000006c64b7dd01ab73abeaf8d79f906c9c608f2d4033000000000000000000000000000000000000000000000000000000000000000001",
      "signatureType": "APPROVED_HASH"
    }
  ],
  "trusted": true,
  "signatures": "0x0000000000000000000000006c64b7dd01ab73abeaf8d79f906c9c608f2d4033000000000000000000000000000000000000000000000000000000000000000001dc43781c4b23ebe8b38bc0722bebc7af6f52d7f4503cb0d0cad2ee995cc06bd47d386adf4e43f9879ecd31662a4c2f2e63750f1755a1da6a763415ca70b3f1a01b"
}