{
  "safe": "0xd140eE77d9e62901d8cEFf199d3ef4Dd1F4Eaff4",
  "to": "0x5e83c7d195318A5acf46B29E5810DdC323b2F6fD",
  "value": "0",
  "data": "0x134008d300000000000000000000000028ade60640fdbdb2609d8d8734d1b5cbefc0c348000000000000000000000000000000000000000000000000000000000000000000000000000000000000000000000000000000000000000000000000000000a00000000000000000000000000000000000000000000000000000000000000000000000000000000000000000000000000000000000000000000000000000000000000000000000000000000000000000000000000000000000000000000003e46a76120200000000000000000000000040a2accbd92bca938b02010e17a5b8929b49130d00000000000000000000000000000000000000000000000000000000000000000000000000000000000000000000000000000000000000000000000000000140000000000000000000000000000000000000000000000000000000000000000100000000000000000000000000000000000000000000000000000000000000000000000000000000000000000000000000000000000000000000000000000000000000000000000000000000000000000000000000000000000000000000000000000000000000000000000000000000000000000000000000000000000000000000000000000000000000000000000000000000000000000000000000000000000000000000000000000000000000000000000000000000000000000000036000000000000000000000000000000000000000000000000000000000000001e48d80ff0a0000000000000000000000000000000000000000000000000000000000000020000000000000000000000000000000000000000000000000000000000000018b007261c2bd75a7ace1762f6d7fae8f63215581832d000000000000000000000000000000000000000000000000000000000000000000000000000000000000000000000000000000000000000000000000000000243659cfe60000000000000000000000003c3fd29201a0e04b70a0bdfd8c90cb038473254b00db023566064246399b4ae851197a97729c93a6cf0000000000000000000000000000000000000000000000000000000000000000000000000000000000000000000000000000000000000000000000000000004499a88ec400000000000000000000000030770d7e3e71112d7a6b7259542d1f680a70e31500000000000000000000000047225a72d151905ccd08b7e5db7f35b644b43af80030770d7e3e71112d7a6b7259542d1f680a70e315000000000000000000000000000000000000000000000000000000000000000000000000000000000000000000000000000000000000000000000000000000240d1e9de1000000000000000000000000faef7338b7490b9e272d80a1a39f4657caf2b97d0000000000000000000000000000000000000000000000000000000000000000000000000000000000000000000000000000000000000000000000000000000000000000000000000000000000000000410000000000000000000000005e83c7d195318a5acf46b29e5810ddc323b2f6fd0000000000000000000000000000000000000000000000000000000000000000010000000000000000000000000000000000000000000000000000000000000000000000000000000000000000000000000000000000000000000000",
  "operation": 0,
  "gasToken": "0x0000000000000000000000000000000000000000",
  "safeTxGas": 0,
  "baseGas": 0,
  "gasPrice": "0",
  "refundReceiver": "0x0000000000000000000000000000000000000000",
  "nonce": 16,
  "executionDate": "2025-03-13T14:54:00Z",
  "submissionDate": "2025-03-13T14:49:50.305534Z",
  "modified": "2025-03-13T14:54:00Z",
  "blockNumber": 3484080,
  "transactionHash": "0xd285c07359f4ff00e487ed21e22161817377c0408ed59328ac14a7ce9e9b6b67",
  "safeTxHash": "0xb46529eb03bd13c7c10952b6ca7ff6fffbbcf1fda713115f95e44ec126e3bd6d",
  "proposer": "0xC1a501f5627229A7fF66F62a9e47A6CB377543Cf",
  "executor": "0x6c64B7DD01aB73ABEaf8D79f906C9C608f2D4033",
  "isExecuted": true,
  "isSuccessful": true,
  "ethGasPrice": "2348469",
  "maxFeePerGas": "4069390",
  "maxPriorityFeePerGas": "1000000",
  "gasUsed": 204073,
  "fee": "479259114237",
  "origin": "{}",
  "dataDecoded": {
    "method": "execute",
    "parameters": [
      {
        "name": "target",
        "type": "address",
        "value": "0x28Ade60640fdBDb2609D8d8734D1b5cBeFc0C348"
      },
      {
        "name": "value",
        "type": "uint256",
        "value": "0"
      },
      {
        "name": "payload",
        "type": "bytes",
        "value": "0x6a76120200000000000000000000000040a2accbd92bca938b02010e17a5b8929b49130d00000000000000000000000000000000000000000000000000000000000000000000000000000000000000000000000000000000000000000000000000000140000000000000000000000000000000000000000000000000000000000000000100000000000000000000000000000000000000000000000000000000000000000000000000000000000000000000000000000000000000000000000000000000000000000000000000000000000000000000000000000000000000000000000000000000000000000000000000000000000000000000000000000000000000000000000000000000000000000000000000000000000000000000000000000000000000000000000000000000000000000000000000000000000000000000036000000000000000000000000000000000000000000000000000000000000001e48d80ff0a0000000000000000000000000000000000000000000000000000000000000020000000000000000000000000000000000000000000000000000000000000018b007261c2bd75a7ace1762f6d7fae8f63215581832d000000000000000000000000000000000000000000000000000000000000000000000000000000000000000000000000000000000000000000000000000000243659cfe60000000000000000000000003c3fd29201a0e04b70a0bdfd8c90cb038473254b00db023566064246399b4ae851197a97729c93a6cf0000000000000000000000000000000000000000000000000000000000000000000000000000000000000000000000000000000000000000000000000000004499a88ec400000000000000000000000030770d7e3e71112d7a6b7259542d1f680a70e31500000000000000000000000047225a72d151905ccd08b7e5db7f35b644b43af80030770d7e3e71112d7a6b7259542d1f680a70e315000000000000000000000000000000000000000000000000000000000000000000000000000000000000000000000000000000000000000000000000000000240d1e9de1000000000000000000000000faef7338b7490b9e272d80a1a39f4657caf2b97d0000000000000000000000000000000000000000000000000000000000000000000000000000000000000000000000000000000000000000000000000000000000000000000000000000000000000000410000000000000000000000005e83c7d195318a5acf46b29e5810ddc323b2f6fd00000000000000000000000000000000000000000000000000000000000000000100000000000000000000000000000000000000000000000000000000000000"
      },
      {
        "name": "predecessor",
        "type": "bytes32",
        "value": "0x0000000000000000000000000000000000000000000000000000000000000000"
      },
      {
        "name": "salt",
        "type": "bytes32",
        "value": "0x0000000000000000000000000000000000000000000000000000000000000000"
      }
    ]
  },
  "confirmationsRequired": 2,
  "confirmations": [
    {
      "owner": "0xC1a501f5627229A7fF66F62a9e47A6CB377543Cf",
      "submissionDate": "2025-03-13T14:49:50.337464Z",
      "transactionHash": null,
      "signature": "0xbc4c3421788655d44b30fbede6fd51d539468dff9b3a65693beec393341e4d232509658796df4a1b3779ca1798c9c710bb90ca31e9564c5aa149579e6031fcd01b",
      "signatureType": "EOA"
    },
    {
      "owner": "0x6c64B7DD01aB73ABEaf8D79f906C9C608f2D4033",
      "submissionDate": "2025-03-13T14:54:00Z",
      "transactionHash": null,
      "signature": "0x0000000000000000000000006c64b7dd01ab73abeaf8d79f906c9c608f2d4033000000000000000000000000000000000000000000000000000000000000000001",
      "signatureType": "APPROVED_HASH"
    }
  ],
  "trusted": true,
  "signatures": "0x0000000000000000000000006c64b7dd01ab73abeaf8d79f906c9c608f2d4033000000000000000000000000000000000000000000000000000000000000000001bc4c3421788655d44b30fbede6fd51d539468dff9b3a65693beec393341e4d232509658796df4a1b3779ca1798c9c710bb90ca31e9564c5aa149579e6031fcd01b"
}