{
  "safe": "0xd140eE77d9e62901d8cEFf199d3ef4Dd1F4Eaff4",
  "to": "0x5e83c7d195318A5acf46B29E5810DdC323b2F6fD",
  "value": "0",
  "data": "0x134008d300000000000000000000000028ade60640fdbdb2609d8d8734d1b5cbefc0c348000000000000000000000000000000000000000000000000000000000000000000000000000000000000000000000000000000000000000000000000000000a00000000000000000000000000000000000000000000000000000000000000000000000000000000000000000000000000000000000000000000000000000000000000000000000000000000000000000000000000000000000000000000002e46a76120200000000000000000000000040a2accbd92bca938b02010e17a5b8929b49130d00000000000000000000000000000000000000000000000000000000000000000000000000000000000000000000000000000000000000000000000000000140000000000000000000000000000000000000000000000000000000000000000100000000000000000000000000000000000000000000000000000000000000000000000000000000000000000000000000000000000000000000000000000000000000000000000000000000000000000000000000000000000000000000000000000000000000000000000000000000000000000000000000000000000000000000000000000000000000000000000000000000000000000000000000000000000000000000000000000000000000000000000000000000000000000000026000000000000000000000000000000000000000000000000000000000000000e48d80ff0a0000000000000000000000000000000000000000000000000000000000000020000000000000000000000000000000000000000000000000000000000000009900275ccf9be51f4a6c94aba6114cdf2a4c45b9cb270000000000000000000000000000000000000000000000000000000000000000000000000000000000000000000000000000000000000000000000000000004466eb399f0000000000000000000000001d95fb363ee0f2cbf5ccdeba1a4b2e975de2a51c0000000000000000000000000000000000000000000000000000000000000001000000000000000000000000000000000000000000000000000000000000000000000000000000000000000000000000000000000000000000000000000000000000410000000000000000000000005e83c7d195318a5acf46b29e5810ddc323b2f6fd0000000000000000000000000000000000000000000000000000000000000000010000000000000000000000000000000000000000000000000000000000000000000000000000000000000000000000000000000000000000000000",
  "operation": 0,
  "gasToken": "0x0000000000000000000000000000000000000000",
  "safeTxGas": 0,
  "baseGas": 0,
  "gasPrice": "0",
  "refundReceiver": "0x0000000000000000000000000000000000000000",
  "nonce": 20,
  "executionDate": "2025-04-08T19:20:36Z",
  "submissionDate": "2025-04-08T19:19:14.848309Z",
  "modified": "2025-04-08T19:20:36Z",
  "blockNumber": 3639473,
  "transactionHash": "0x1d723eb995e3810a48a94d36c27538c85f80d46e1654727f34d903ce34d3a05f",
  "safeTxHash": "0x9204d48ceb14295218ce89aeaf60f733ec71789d5915498472c876467aca3b8c",
  "proposer": "0x27977e6E4426A525d055A587d2a0537b4cb376eA",
  "executor": "0x3E5Ab7bf85Ccf8A41c08BFe5414c405cb3114033",
  "isExecuted": true,
  "isSuccessful": true,
  "ethGasPrice": "1001816",
  "maxFeePerGas": "1001824",
  "maxPriorityFeePerGas": "1001808",
  "gasUsed": 170438,
  "fee": "170747515408",
  "origin": "{}",
  "dataDecoded": {
    "method": "execute",
    "parameters": [
      {
        "name": "target",
        "type": "address",
        "value": "0x28Ade60640fdBDb2609D8d8734D1b5cBeFc0C348"
      },
      {
        "name": "value",
        "type": "uint256",
        "value": "0"
      },
      {
        "name": "payload",
        "type": "bytes",
        "value": "0x6a76120200000000000000000000000040a2accbd92bca938b02010e17a5b8929b49130d00000000000000000000000000000000000000000000000000000000000000000000000000000000000000000000000000000000000000000000000000000140000000000000000000000000000000000000000000000000000000000000000100000000000000000000000000000000000000000000000000000000000000000000000000000000000000000000000000000000000000000000000000000000000000000000000000000000000000000000000000000000000000000000000000000000000000000000000000000000000000000000000000000000000000000000000000000000000000000000000000000000000000000000000000000000000000000000000000000000000000000000000000000000000000000000026000000000000000000000000000000000000000000000000000000000000000e48d80ff0a0000000000000000000000000000000000000000000000000000000000000020000000000000000000000000000000000000000000000000000000000000009900275ccf9be51f4a6c94aba6114cdf2a4c45b9cb270000000000000000000000000000000000000000000000000000000000000000000000000000000000000000000000000000000000000000000000000000004466eb399f0000000000000000000000001d95fb363ee0f2cbf5ccdeba1a4b2e975de2a51c0000000000000000000000000000000000000000000000000000000000000001000000000000000000000000000000000000000000000000000000000000000000000000000000000000000000000000000000000000000000000000000000000000410000000000000000000000005e83c7d195318a5acf46b29e5810ddc323b2f6fd00000000000000000000000000000000000000000000000000000000000000000100000000000000000000000000000000000000000000000000000000000000"
      },
      {
        "name": "predecessor",
        "type": "bytes32",
        "value": "0x0000000000000000000000000000000000000000000000000000000000000000"
      },
      {
        "name": "salt",
        "type": "bytes32",
        "value": "0x0000000000000000000000000000000000000000000000000000000000000000"
      }
    ]
  },
  "confirmationsRequired": 2,
  "confirmations": [
    {
      "owner": "0x27977e6E4426A525d055A587d2a0537b4cb376eA",
      "submissionDate": "2025-04-08T19:19:14.896247Z",
      "transactionHash": null,
      "signature": "0x541626d48e0728d7d052f271d192b95767714a62bf5fff178f9e5ccaab9a17dc5181f04524711dcabd01e1e24bacb22c95e500aa1144563e2f4ecb25a28c08e31c",
      "signatureType": "EOA"
    },
    {
      "owner": "0x3E5Ab7bf85Ccf8A41c08BFe5414c405cb3114033",
      "submissionDate": "2025-04-08T19:20:36Z",
      "transactionHash": null,
      "signature": "0x0000000000000000000000003e5ab7bf85ccf8a41c08bfe5414c405cb3114033000000000000000000000000000000000000000000000000000000000000000001",
      "signatureType": "APPROVED_HASH"
    }
  ],
  "trusted": true,
  "signatures": "0x541626d48e0728d7d052f271d192b95767714a62bf5fff178f9e5ccaab9a17dc5181f04524711dcabd01e1e24bacb22c95e500aa1144563e2f4ecb25a28c08e31c0000000000000000000000003e5ab7bf85ccf8a41c08bfe5414c405cb3114033000000000000000000000000000000000000000000000000000000000000000001"
}